:020000020000FC
:100000000C942A000C9476000C9477000C947800E1
:100010000C9479000C947A000C947B000C947C0076
:100020000C947D000C947E000C947F000C94800056
:100030000C9481000C9482000C9483000C94840036
:100040000C9485000C9486000C9487000C94880016
:100050000C94890004E00EBF0FE50DBF0FEF07BB46
:1000600000E008BB03E00ABB0DEF0BBB99E17894FD
:1000700000E002BF03E008BF00E009BF00E00CBFE2
:1000800009E603BF0BD01A3F61F0103081F061F434
:10009000CA9B10D0CB9B16D01CBFF5CF20E010E040
:1000A00008950EEF0BBBF4CF0CEF0BBBF1CF0DEFB0
:1000B0000BBBEECF0FD01A3F09F0190FCA9BFECF32
:1000C00009D0089507D0103009F0191BCB9BFECF43
:1000D00001D00895E5E6F4EAFA95F1F7EA95D9F743
:1000E000E1E0EA95F1F700000000089518951895F1
:1000F0001895189518951895189518951895189598
:100100001895189518951895189518951895189587
:040110001895189591
:00000001FF
