:020000020000FC
:100000000C942A000C9413010C9414010C94150107
:100010000C9416010C9417010C9418010C941901FE
:100020000C941A010C941B010C941C010C941D01DE
:100030000C941E010C941F010C9420010C942101BE
:100040000C9422010C9423010C9424010C9425019E
:100050000C94260104E00EBF0FE50DBF0AE0A02EB0
:1000600000EE0ABB0FEF0BBB0FEF04BB01BB07BBDE
:1000700000E005BB02BB08BB789400E002BF03E0D0
:1000800008BF00E009BF06E50CBF0BE603BF26D0A2
:1000900052D00FED0BBB00000000CC9B61D0CB9B7E
:1000A00077D0CA9B8DD0C99BA5D00FEB0BBB0000AE
:1000B0000000CC9B5DD0CB9B73D0CA9B89D0C99BE1
:1000C00047D00FE70BBB00000000CC9B59D0CB9B67
:1000D0006FD0CA9B85D0C99B94D0DBCF90E050E015
:1000E00060E080E070E010E001D00895682F629534
:1000F0006F7065BB682F6F7062BB0895923044F4D7
:1001000093955A9D502D560F8295807F872BEEDF59
:10011000089516E51CBF1BC017E51CBF18C018E5E5
:100120001CBF15C019E51CBF12C01AE51CBF0FC0CB
:100130001BE51CBF0CC05A3060F35E3168F35233CC
:1001400070F3563478F35A3580F3543688F30895B3
:100150005FD060E070E0D2DFC99BFECF59D0089538
:1001600057D061E078E0CADFCC9BFECF51D0089534
:100170004FD062E074E0C2DFCC9BFECF49D008953F
:1001800047D063E07CE0BADFCC9BFECF41D008953E
:100190003FD064E072E0B2DFCB9BFECF39D0089550
:1001A00037D065E07AE0AADFCB9BFECF31D008954F
:1001B0002FD066E076E0A2DFCB9BFECF29D008955A
:1001C00027D067E07EE09ADFCA9BFECF21D008955A
:1001D0001FD068E071E092DFCA9BFECF19D008956E
:1001E00017D069E079E08ADFCA9BFECF11D008956D
:1001F000A2DF03C00DD09230D9F3C99BFECF08D047
:10020000089506D06BDF97DFC99BFECF01D008951C
:10021000B7E9C6E0D2E9DA95F1F7CA95D9F7BA9508
:10022000C1F7000008951895189518951895189518
:100230001895189518951895189518951895189556
:0E0240001895189518951895189518951895F5
:00000001FF
