:020000020000FC
:100000000C942A000C9460000C9461000C94620023
:100010000C9463000C9464000C9465000C946600CE
:100020000C9467000C9468000C9469000C946A00AE
:100030000C946B000C946C000C946D000C946E008E
:100040000C946F000C9470000C9471000C9472006E
:100050000C94730004E00EBF0FE50DBF00E007BB7A
:100060000FEF08BB0FEF0ABB00E00BBB13E0B09B28
:1000700007D0B19B10D0FBCF18E006C011E00FC035
:1000800015D016951030C1F31BBB10D00FD0B09B0C
:10009000F8CF0CD008950AD0110F103179F31BBBA3
:1000A00005D004D0B19BF8CF01D0089565E17DEE75
:1000B0007A95F1F76A95D9F762E06A95F1F70895B4
:1000C00018951895189518951895189518951895C8
:1000D00018951895189518951895189518951895B8
:0800E000189518951895189564
:00000001FF
