:100000000C9433000C943B070C943B070C943B0777
:100010000C943B070C943B070C943B070C943B0758
:100020000C943B070C943B070C943B070C943B0748
:100030000C943B070C943B070C943B070C943B0738
:100040000C943B070C943B070C945A040C943B070C
:100050000C943B070060008080008000A0000E7AB6
:1000600000A000A8800011241FBECFE5D4E0DEBFB1
:10007000CDBFE4E5F0E040E017C0B591A591359122
:100080002591059107FD0CC095918591EF01F92F00
:10009000E82F05900D92A217B307D9F7FE0104C00F
:1000A0001D92A217B307E1F7E536F40731F70E9476
:0A00B000AD020C945B00F894FFCF42
:1000BA00496E7365727461202425642E30300054B1
:1000CA0069656E657320243025642E3030005469CA
:1000DA00656E6573202425642E303000456C69678F
:1000EA00652070726F647563746F3A00456E74723E
:1000FA006567616E646F2E2E2E0043616D62696FB3
:08010A00202425642E30300092
:100112002F923F924F926F927F928F929F92AF92C5
:10012200BF92CF92DF92EF92FF920F931F93CF93E2
:10013200DF93CDB7DEB762970FB6F894DEBF0FBE7E
:10014200CDBF6C013A01862E7901FC01108617821F
:10015200848181FFE7C19E012F5F3F4F3D872C873E
:10016200C901A0E8888B998BAA8B9FE3992EF30192
:10017200849187FC8081882309F4D0C1482D9301A2
:100182002F5F3F4F4F4F853219F03901842E0AC03D
:10019200F901849147FD808192E0690E711C811CF6
:1001A200853229F4B60190E00E94D905E0CFB12C46
:1001B20000E010E01032A0F48B3269F030F48032AB
:1001C20059F0833269F410612CC08D3239F08033DA
:1001D20039F4116026C01260146023C0186021C077
:1001E20017FD29C090ED980F9A3078F416FF06C0DB
:1001F200AAE0BA9E900D1124B92E13C0EAE00E9F18
:10020200900D1124092F10620CC08E3221F416FDBC
:1002120085C1106406C08C3611F4106802C088369D
:1002220051F4F301849187FC8081FFEF6F1A7F0AFA
:100232008F0A8111BFCF982F9F7D9554933028F458
:1002420024E0E20EF11C99820FC0833631F083372D
:1002520091F0833509F063C027C0F701808189835B
:1002620097012E5F3F4F7901288839884A88AA244E
:10027200A394B12C17C0A7014D5F5F4F5F874E87D4
:10028200F70120803180428016FF03C04B2D50E0E1
:1002920002C04FEF5FEF842DB1010E94A6065C0100
:1002A200EE84FF841F7718C097012D5F3F4F3F8771
:1002B2002E87F70120803180428016FF03C04B2D2C
:1002C20050E002C04FEF5FEF842DB1010E94A606FD
:1002D2005C011068EE84FF8413FD1DC0802F90E046
:1002E200A816B906C0F4B60180E290E00E94D905D2
:1002F2000150F4CFF101849147FC8081FFEF2F1A66
:100302003F0A4F0AB60190E00E94D905011101503F
:1003120021E0A21AB108A114B10461F7F5C0843634
:1003220011F0893671F5F70117FF08C060817181FC
:100332008281938197012C5F3F4F09C06081718157
:10034200072E000C880B990B97012E5F3F4F790106
:100352001F76312E97FF0AC0909580957095619512
:100362007F4F8F4F9F4F312F3068332E2AE030E07E
:10037200AE014F5F5F4F0E94FC03482E4C85441A2A
:100382004AC0853729F41F7EA12E2AE030E025C01D
:10039200512F597FA52E8F36C1F018F4883579F088
:1003A200BDC0803719F0883721F0B8C0852F806131
:1003B200A82EA4FE0DC09A2D9460A92E09C014FF88
:1003C2000AC0A52FA660AA2E06C028E030E005C00C
:1003D20020E130E002C020E132E0F701A7FE08C0D0
:1003E2006081718182819381A7014C5F5F4F07C059
:1003F2006081718180E090E0A7014E5F5F4F7A01DA
:10040200AE014F5F5F4F0E94FC03482E5C85451A88
:100412008A2D8F77382E36FE0DC0932D9E7FA92E02
:100422004B1458F434FE0BC032FC09C0A32DAE7E2F
:10043200AA2E05C0142DA32C03C0142D01C01B2D00
:10044200A4FE0EC0FE01E40DF11D8081803321F473
:10045200EA2DE97EAE2E08C0A2FE05C01E5F04C0D2
:100462008A2D867809F01F5FA3FC11C0A0FE06C08A
:10047200101788F4040DB02EB11A0EC0101760F4D4
:10048200B60180E290E00E94D9051F5FF7CF1017F6
:1004920018F4011B02C0B42C00E0A4FE10C0B60187
:1004A20080E390E00E94D905A2FE17C0A1FC03C020
:1004B20088E790E002C088E590E0B6010CC08A2D82
:1004C200867859F0A1FE02C08BE201C080E2A7FC4F
:1004D2008DE2B60190E00E94D9054B1438F4B601C2
:1004E20080E390E00E94D905BA94F7CF4A94E1E004
:1004F200F0E0EC0FFD1FE40DF11D8081B60190E0EC
:100502000E94D9054110F2CF002309F430CEB60182
:1005120080E290E00E94D9050150F6CFF601878172
:10052200908502C08FEF9FEF62960FB6F894DEBF00
:100532000FBECDBFDF91CF911F910F91FF90EF9032
:10054200DF90CF90BF90AF909F908F907F906F90F1
:080552004F903F902F90089597
:10055A000E940F071092A10081E00E949A0580E88C
:10056A000E949A0520E130E046EE50E060E080E724
:10057A0090E00E94F60680E790E06C0120E8E22E07
:10058A008E2DB6010E94DC068FE00E949A0580EC4F
:10059A000E949A050E940605C82F2091A70087E0AD
:1005AA0090E0821B91094091A60023E030E0241BD1
:1005BA003109880F991F880F991F80589F4FFC0196
:1005CA00E20FF31F808196EF9C0F923018F70E947A
:1005DA005605C093A50081EC0E949A050E94060563
:1005EA00C82F2091A70087E090E0821B91094091D3
:1005FA00A60023E030E0241B3109880F991F880FD9
:10060A00991F80589F4FFC01E20FF31F80819FEFD3
:10061A009C0F923018F70E945605C093A40080914F
:10062A00A5008A3061F48091A400813021F48BE026
:10063A008093A2000FC08FE08093A2000BC080912C
:10064A00A400813021F481E18093A20003C080E2FA
:10065A008093A2008FE996E821E0815090402040E3
:10066A00E1F700C0000081E00E949A058CE00E9438
:10067A009A050E949C0381E08093A1009091A300B7
:10068A008091A2009817D0F38FE996E821E0815073
:10069A0090402040E1F700C0000081E00E949A05E6
:1006AA002EE030E046EF50E060E080E790E00E9404
:1006BA00F6068091A3002091A20090E0821B910986
:1006CA009F938F9384E091E0A0E0AF939F938F93E1
:1006DA00C0E6D0E0DF93CF930E944B0680E80E94E9
:1006EA009A058E2DB6010E94DC0680EC0E949A05BE
:1006FA00BE0180E80E94DC062FED83E994E02150D8
:10070A0080409040E1F700C000001092A2001092D1
:10071A00A3001092A10081E00E949A058DB79EB7AE
:0E072A0007960FB6F8949EBF0FBE8DBF13CF7B
:100738008091A2001F928F938AEB90E0A0E0AF9384
:100748009F938F9380E790E09F938F930E944B062F
:100758008091A3002DB73EB7295F3F4F0FB6F8949D
:100768003EBF0FBE2DBF8A30C8F48091A3001F92F0
:100778008F9389EC90E0A0E0AF939F938F9380E6EE
:1007880090E09F938F930E944B068DB79EB7079674
:100798000FB6F8949EBF0FBE8DBF19C08091A300FD
:1007A8001F928F9388ED90E0A0E0AF939F938F9373
:1007B80080E690E09F938F930E944B062DB73EB73B
:1007C800295F3F4F0FB6F8943EBF0FBE2DBF80E89C
:1007D8000E949A0560E770E080E80E94DC0680ECE1
:1007E8000E949A0560E670E080E80E94DC060895A1
:1007F800FA01AA27283051F1203181F1E8946F934A
:100808006E7F6E5F7F4F8F4F9F4FAF4FB1E03ED0EF
:10081800B4E03CD0670F781F891F9A1FA11D680F8D
:10082800791F8A1F911DA11D6A0F711D811D911DC0
:10083800A11D20D009F468943F912AE0269F112435
:100848003019305D3193DEF6CF010895462F477099
:10085800405D4193B3E00FD0C9F7F6CF462F4F70F4
:10086800405D4A3318F0495D31FD4052419302D052
:10087800A9F7EACFB4E0A6959795879577956795F8
:10088800BA95C9F700976105710508959B01AC01F8
:100898000A2E06945795479537952795BA95C9F71F
:0C08A800620F731F841F951FA01D089590
:1008B4001F920F920FB60F9211242F933F934F93D1
:1008C4005F936F937F938F939F93AF93BF93EF93B4
:1008D400FF938091A1008130A1F586B382958F703A
:1008E4008093A0008091A000813029F48091A3001E
:1008F4008F5F8093A3008091A000823029F48091BF
:10090400A3008E5F8093A3008091A000833029F41C
:100914008091A3008B5F8093A3008091A00084301A
:1009240029F48091A300865F8093A300B29BFECF3D
:100934008091A000853028F48091A00081110E944C
:100944009C03FF91EF91BF91AF919F918F917F9104
:100954006F915F914F913F912F910F900FBE0F9028
:040964001F90189533
:100968008AB3807F8ABB65E08BE390E00E94220710
:1009780066E08BE390E00E942F0764E08BE390E051
:100988000E942F0783EC99E00197F1F700C000005F
:1009980064E08BE390E00E942207CB9915C093E0B6
:1009A8009A95F1F7000064E08BE390E00E942F072E
:1009B80083EC99E00197F1F700C0000064E08BE355
:1009C80090E00E942207D9CF64E08BE390E00E9478
:1009D8002F0783EC99E00197F1F700C0000064E06D
:1009E8008BE390E00E94220765E08BE390E00E9491
:1009F800220766E08BE390E00E9422078AB38F67A4
:040A08008ABB089508
:100A0C0030E0432F50E081E090E0032E02C0880FCD
:100A1C00991F0A94E2F7809585BB0000000024E042
:100A2C003AC083B3622F70E090E0022E02C095951D
:100A3C0087950A94E2F780FD2DC083ED90E3019732
:100A4C00F1F700C0000083B390E0062E02C095952C
:100A5C0087950A94E2F780FFF6CF83ED90E3019738
:100A6C00F1F700C000002093A7003093A60087E0A8
:100A7C0090E0861B970B23E030E0241B350B880F8E
:100A8C00991F880F991F80579F4FFC01E20FF31F8E
:100A9C00808108952F5F283020F23F5F3370B1CFF3
:100AAC00CF93C82F82958F708BBB65E08BE390E062
:100ABC000E942F0766E08BE390E00E94220764E01F
:100ACC008BE390E00E942F0783EC99E00197F1F7FC
:100ADC0000C0000064E08BE390E00E942207CF701E
:100AEC00CBBB65E08BE390E00E942F0766E08BE3C5
:100AFC0090E00E94220764E08BE390E00E942F07B5
:100B0C0083EC99E00197F1F700C0000064E08BE3FF
:100B1C0090E00E94220765E08BE390E00E942207A0
:080B2C000E94B404CF9108956A
:100B3400CF93C82F82958F708BBB65E08BE390E0D9
:100B44000E94220766E08BE390E00E94220764E0A3
:100B54008BE390E00E942F0783EC99E00197F1F773
:100B640000C0000064E08BE390E00E942207CF7095
:100B7400CBBB65E08BE390E00E94220766E08BE349
:100B840090E00E94220764E08BE390E00E942F072C
:100B940083EC99E00197F1F700C0000064E08BE377
:0E0BA40090E00E9422070E94B404CF910895B1
:100BB2000F931F93CF93DF93FB01248121FD03C089
:100BC2008FEF9FEF2CC022FF16C0478150852581F1
:100BD20036814217530744F4A081B1819D012F5FF2
:100BE2003F4F318320838C93278130852F5F3F4F86
:100BF2003087278314C08B01EC01FB010184F2854D
:100C0200E02D0995892BE1F6D80117968D919C91DB
:100C12001897019618969C938E931797CE01DF91A1
:080C2200CF911F910F9108957D
:100C2A008FE78ABB85EA9EE00197F1F700C00000D2
:100C3A0083E00E946E0681EE94E00197F1F700C00E
:100C4A00000083E00E946E0691E29A95F1F7000097
:100C5A0083E00E946E0681E28A95F1F7000082E045
:100C6A000E946E0691E29A95F1F7000088E20E94CE
:100C7A009A0588E00E949A0581E00E949A0586E01A
:0C0C8A000E949A058CE00E949A050895D3
:100C9600AFE0B0E0E1E5F6E00C9498060E891F8916
:100CA60086E08D831A8309838FEF9FE79F838E8368
:100CB6009E01255E3F4F488D598D6A8DCE01019666
:100CC6000E948900E885F985E00FF11F10822F96B2
:060CD600E4E00C94CF06DF
:100CDC008BBB65E08BE390E00E94220766E08BE320
:100CEC0090E00E94220764E08BE390E00E942F07C3
:100CFC0083EC99E00197F1F700C0000064E08BE30E
:080D0C0090E00E942207089507
:100D14002F923F924F925F926F927F928F929F9207
:100D2400AF92BF92CF92DF92EF92FF920F931F93F5
:100D3400CF93DF93CDB7DEB7CA1BDB0B0FB6F894A6
:080D4400DEBF0FBECDBF099414
:100D4C00CF92DF92EF926B01E82EA82FCB014115C9
:100D5C00510531F48C199D09EF90DF90CF900895D7
:100D6C00FC012491A7FD20812223A1F30196A11D52
:060D7C0041505109ECCFCB
:100D82002A88398848885F846E847D848C849B8419
:100D9200AA84B984C884DF80EE80FD800C811B8127
:100DA200AA81B981CE0FD11D0FB6F894DEBF0FBE56
:060DB200CDBFED01089524
:100DB800CF92DF92EF92A82FCB0104C00E94560574
:100DC800AE2DC6016C01EA2E2FEFC21AD20AE20A32
:100DD800FC018491A7FD80818111F0CFEF90DF9015
:040DE800CF9008950B
:100DEC00CF92DF92EF92DC016A01E62E280F391FB9
:100DFC00A217B30751F0F6014491E7FC40814D93E3
:100E0C004FEFC41AD40AE40AF3CFEF90DF90CF90DF
:020E1C00089537
:100E1E001092A100789480EE8ABF82E085BF90E2A6
:100E2E009BBF9FE094BB9FEF95BB87BB8DEF88BBAD
:060E3E000E941506089554
:100E4400FC01908121E030E002C0220F331F6A953B
:0A0E5400E2F720952923208308957A
:100E5E00FC01408121E030E002C0220F331F6A9571
:080E6E00E2F7242B2083089514
:040E76000C940000D8
:100E7A0044434241463336393032353845313437C6
:100E8A000D0C0B0A0F030609000205080E010407E0
:0400000300000E1ECD
:00000001FF
