:100000000C942A000C943F000C943F000C943F0089
:100010000C943F000C943F000C943F000C943F0064
:100020000C943F000C943F000C943F000C943F0054
:100030000C943F000C943F000C943F000C943F0044
:100040000C943F000C943F000C943F000C943F0034
:100050000C943F0011241FBECFE5D4E0DEBFCDBF1E
:1000600010E0A0E6B0E0E6EFF1E002C005900D92EE
:10007000AA37B107D9F70E9493000C94F9000C94A9
:10008000000030E0432F50E081E090E0032E02C0FA
:10009000880F991F0A94E2F780958BBB000000003F
:1000A00024E03CC089B3622F70E090E0022E02C0D1
:1000B000959587950A94E2F780FD2FC02FE788E396
:1000C00091E0215080409040E1F700C0000089B3EA
:1000D00090E0062E02C0959587950A94E2F780FF7E
:1000E000F6CF2FE788E391E0215080409040E1F780
:1000F00000C0000087E090E0861B970B23E030E013
:10010000241B350B880F991F880F991F805A9F4F0A
:10011000FC01E20FF31F808108952F5F283010F259
:100120003F5F3370AFCFCF93DF93CDB7DEB72A9762
:100130000FB6F894DEBF0FBECDBF8FE08ABB8FEF46
:1001400087BB84BB8BBB8AE0E0E7F0E0DE01119661
:1001500001900D928A95E1F712BE89818CBF8CE6E1
:1001600083BF10E0212F2A7A30E035952795812F23
:10017000857590E0880F991F282B392BC9018C7C3D
:100180009927959587959595879523733327220F02
:10019000331F220F331F822B932B9C012295329504
:1001A000307F3227207F32279595879595958795C3
:1001B0009595879595958795822B932B9595879502
:1001C0009595879585BB0E944100893019F41930B7
:1001D00008F41F5F813011F4111111508D3011F6A8
:1001E000E1E0F0E0EC0FFD1FE10FF11D80818CBF1D
:0601F000B9CFF894FFCF27
:1001F6000708090A0405060B0102030C0E000F0D81
:0A02060005080B0F13171B1F23261A
:00000001FF
