:100000000C942D000C94FA010C94FA010C94FA0152
:100010000C94FA010C94FA010C94FA010C94FA0174
:100020000C94FA010C94FA010C94FA010C94FA0164
:100030000C94FA010C94FA010C94FA010C94FA0154
:100040000C94FA010C94FA010C94FA010C94FA0144
:100050000C94FA0100600061800011241FBECFE5FE
:10006000D4E0DEBFCDBFE4E5F0E040E017C0B591DD
:10007000A59135912591059107FD0CC0959185912C
:10008000EF01F92FE82F05900D92A217B307D9F7CA
:10009000FE0104C01D92A217B307E1F7E935F4078A
:0E00A00031F70E94B0010C945500F894FFCF88
:0700AE006C616C69746F00C6
:1000B60084B3807F84BB64E085E390E00E94CA013C
:1000C60065E085E390E00E94E30166E085E390E069
:1000D6000E94E30183EC99E00197F1F700C000006C
:1000E60066E085E390E00E94CA0180916000882363
:1000F60039F063E083E390E00E94EF01811120C0B4
:1001060080916000811107C063E083E390E00E9464
:10011600D701811115C093E09A95F1F7000066E0CA
:1001260085E390E00E94E30183EC99E00197F1F703
:1001360000C0000066E085E390E00E94CA01C5CFDA
:1001460066E085E390E00E94E30183EC99E0019785
:10015600F1F700C0000066E085E390E00E94CA0166
:1001660064E085E390E00E94CA0165E085E390E0E3
:0C0176000E94CA0184B38F6784BB089507
:10018200CF93C82F82958F7085BB64E085E390E0A2
:100192000E94E30165E085E390E00E94CA0166E007
:1001A20085E390E00E94E30183EC99E00197F1F787
:1001B20000C0000066E085E390E00E94CA01CF70B3
:1001C200C5BB64E085E390E00E94E30165E085E35E
:1001D20090E00E94CA0166E085E390E00E94E3019C
:1001E20083EC99E00197F1F700C0000066E085E337
:1001F20090E00E94CA0164E085E390E00E94CA0197
:080202000E945B00CF910895FA
:10020A00CF93C82F82958F7085BB64E085E390E019
:10021A000E94CA0165E085E390E00E94CA0166E097
:10022A0085E390E00E94E30183EC99E00197F1F7FE
:10023A0000C0000066E085E390E00E94CA01CF702A
:10024A00C5BB64E085E390E00E94CA0165E085E3EE
:10025A0090E00E94CA0166E085E390E00E94E30113
:10026A0083EC99E00197F1F700C0000066E085E3AE
:0E027A0090E00E94CA010E945B00CF9108959F
:100288008FE784BB85EA9EE00197F1F700C0000084
:1002980083E00E947A0181EE94E00197F1F700C0B3
:1002A800000083E00E947A0191E29A95F1F700003C
:1002B80083E00E947A0181E28A95F1F7000082E0EA
:1002C8000E947A0191E29A95F1F7000088E20E9473
:1002D800050188E00E94050181E00E94050186E091
:0C02E8000E9405018CE00E9405010895B1
:1002F40085BB64E085E390E00E94CA0165E085E384
:1003040090E00E94CA0166E085E390E00E94E30168
:1003140083EC99E00197F1F700C0000066E085E303
:0803240090E00E94CA01089557
:10032C00CF92DF92EF92A82FCB0104C00E94C100A4
:10033C00AE2DC6016C01EA2E2FEFC21AD20AE20AC8
:10034C00FC018491A7FD80818111F0CFEF90DF90AB
:04035C00CF900895A1
:1003600081E0809360000E94440180E80E940501C2
:1003700086EB0E94C1008EED0E94C1008FEC0E94AE
:10038000C10080EC0E9405016EEA70E080E00E94EE
:040390009601FFCF04
:10039400FC01908121E030E002C0220F331F6A95F6
:0A03A400E2F7209529232083089535
:1003AE00FC01808190E002C0959587956A95E2F7F1
:0803BE00F1E08F278170089522
:1003C600FC01408121E030E002C0220F331F6A9514
:0803D600E2F7242B20830895B7
:1003DE00FC01208181E090E002C0880F991F6A9590
:0603EE00E2F782230895EE
:0403F4000C94000065
:00000001FF
