:020000020000FC
:100000000C942A000C9491000C9492000C94930090
:100010000C9494000C9495000C9496000C9497000A
:100020000C9498000C9499000C949A000C949B00EA
:100030000C949C000C949D000C949E000C949F00CA
:100040000C94A0000C94A1000C94A2000C94A300AA
:100050000C94A80004E00EBF0FE50DBF0AE0A02E2F
:1000600000E00ABB0FEF04BB01BB0BBB00E005BB0C
:1000700002BB789400E002BF03E008BF02E009BFC2
:100080000CE70CBF0CE003BF6DE770E0FFCF19D0A9
:1000900002C02530E1F736C039D03FEF19D01DD06E
:1000A000C89BFECF33D0089531D030E011D015D0A9
:1000B000CF9BFECF2BD00895C89BEEDFCF9BF4DF04
:1000C000089513951C3309F0089510E02395FCCF93
:1000D00010E020E00895FCDF17C025BB50E0412F61
:1000E0004A3020F053954A194A30E0F75295403093
:1000F00021F053954A954030E1F752BB089570E0E6
:10010000303039F6303039F3E8DF21C087EA92E049
:10011000A8EFAA95F1F79A95D9F78A95C1F700004B
:100120000895189518951895189518951895189577
:100130001895189518951895189518951895189557
:10014000189518951895B8DF73957617C1F218951C
:02015000189500
:00000001FF
