:020000020000FC
:100000000C942A000C9407010C9408010C9409012B
:100010000C940A010C940B010C940C010C940D012E
:100020000C940E010C940F010C9410010C9411010E
:100030000C9412010C9413010C9414010C941501EE
:100040000C9416010C9417010C9418010C941901CE
:100050000C941A0104E00EBF0FE50DBF0FEF0ABBB1
:1000600000E00BBB33E00FEF07BB00E008BB43E051
:100070000FEF04BB00E005BB53E000E801BB0FE35A
:1000800002BBBCD0859B0DD0829B3FD0819B44D0CE
:10009000839B49D0849B4ED086991BD0869B1CD0D5
:1000A000F1CFACD09FEF7FEF5AD07FE858D07FEFF1
:1000B00072D0869990E07FEF44D07FE842D0869955
:1000C00090E090FF0CD090FD15D0859BFECF96D090
:1000D00008950FEB02BB08950FE302BB08957FEF75
:1000E00068D07FE466D07FEF48D07FEF70D07FE4A8
:1000F0006ED008957FEF6BD07FE469D07FEF3DD065
:100100007FEF57D07FE455D0089578D07FE419D0A1
:10011000829BFECF73D0089571D07FE420D0819B65
:10012000FECF6CD008956AD07FE427D0839BFECFAA
:1001300065D0089563D07FE42ED0849BFECF5ED03F
:1001400008957A95703051F001E00323000F000FFD
:10015000000F3695302B3BBB48D0F3CF08957A95EE
:10016000703051F008E00323069506950695330F8D
:10017000302B3BBB3AD0F3CF08957A95703051F0D5
:1001800001E00423000F000F000F4695402B48BBF1
:100190002CD0F3CF08957A95703051F008E0042305
:1001A000069506950695440F402B48BB1ED0F3CF0D
:1001B00008957A95703051F001E00523000F000F8B
:1001C000000F5695502B55BB10D0F3CF08957A955C
:1001D000703051F008E00523069506950695550FF9
:1001E000502B55BB02D0F3CF08951FE125E52A958A
:1001F000F1F71A95D9F700000000089516E826ECEB
:100200002A95F1F71A95D9F700000000089518957E
:100210001895189518951895189518951895189576
:100220001895189518951895189518951895189566
:06023000189518951895C1
:00000001FF
