:020000020000FC
:1000000000E00ABB0FEF0BBB0FEF04BB0FEF05BB0C
:100010000FE3002E06E0102E0BE5202E0FE4302E0D
:1000200006E6402E0DE6502E0DE7602E07E0702EFE
:100030000FE7802E0FE6902E00E033D007D0C89B4C
:1000400039D0C99B3CD0CA9B3FD0F7CF0030A9F034
:100050000130A9F00230A9F00330A9F00430A9F072
:100060000530A9F00630A9F00730A9F00830A9F052
:100070000930A9F010E015BB089505BA089515BA26
:10008000089525BA089535BA089545BA089555BA20
:10009000089565BA089575BA089585BA089595BA10
:1000A00008950A3019F00F3F19F0089500E00895FF
:1000B00009E008950AD00395C89BFECF089505D0A6
:1000C0000A95C99BFECF0895089545E654EA5A95CE
:1000D000F1F74A95D9F741E04A95F1F700000000A1
:0200E000089581
:00000001FF
