:020000020000FC
:100000000C942A000C9475000C9476000C947700E4
:100010000C9478000C9479000C947A000C947B007A
:100020000C947C000C947D000C947E000C947F005A
:100030000C9480000C9481000C9482000C9483003A
:100040000C9484000C9485000C9486000C9487001A
:100050000C948E0004E00EBF0FE50DBF0AE0A02E49
:100060000FEF04BB00E005BB0ABB07BB0BBB0FEFE8
:1000700008BB789400E002BF03E008BF02E009BFBC
:100080000CE70CBF0BE003BF1FD0B09B01D0FDCF2E
:100090000FD0432F50E04A3020F053954A194A3090
:1000A000E0F75295540F55BBB09BFECF01D0089599
:1000B00085E694EA9A95F1F78A95D9F781E08A95D1
:1000C000F1F700000000089540E010E060E050E02B
:1000D00030E0089563951FEF0895103011F4639593
:1000E0000895362F60E010E0FACF1895189518950E
:1000F0001895189518951895189518951895189598
:1001000018951895189518951895189518950FB66F
:0E011000C89BE0DFC899E1DF0FBE1895189577
:00000001FF
