:020000020000FC
:100000000C942A000C94DA000C94DB000C94DC00B5
:100010000C94DD000C94DE000C94DF000C94E000E6
:100020000C94E1000C94E2000C94E3000C94E400C6
:100030000C94E5000C94E6000C94E7000C94E800A6
:100040000C94E9000C94EA000C94EB000C94EC0086
:100050000C94ED0004E00EBF0FE50DBF0FE00ABBEE
:100060000FEF04BB00E005BB10E00EEF0BBB000080
:100070000000CC9B87D0CC9BFECFCD9B71D0CD9B7D
:10008000FECFCE9B5BD0CE9BFECFCF9B45D0CF9BF0
:10009000FECF0DEF0BBB00000000CC9B38D0CC9BFB
:1000A000FECFCD9B63D0CD9BFECFCE9B4DD0CE9BC4
:1000B000FECFCF9B37D0CF9BFECF0BEF0BBB00000B
:1000C0000000CC9B61D0CC9BFECFCD9B55D0CD9B6F
:1000D000FECFCE9B3FD0CE9BFECFCF9B29D0CF9BD8
:1000E000FECF07EF0BBB00000000CC9B55D0CC9B94
:1000F000FECFCD9B4FD0CD9BFECFCE9B49D0CE9B8C
:10010000FECFCF9B43D0CF9BFECF15BBAECF46D00B
:10011000107F129515BB089541D0107F1160129584
:1001200015BB08953BD0107F1260129515BB089542
:1001300035D0107F1360129515BB08952FD0107F16
:100140001460129515BB089529D0107F1560129583
:1001500015BB089523D0107F1660129515BB089526
:100160001DD0107F1760129515BB089517D0107F12
:100170001860129515BB089511D0107F1960129563
:1001800015BB08950BD0089509D0089507D00895A0
:1001900005D0089503D0089501D0089545E654EAA6
:1001A0005A95F1F74A95D9F741E04A95F1F70000E1
:1001B0000000089518951895189518951895189594
:1001C00018951895189518951895189518951895C7
:0C01D00018951895189518951895189515
:00000001FF
