:020000020000FC
:100000000C942A000C946C000C9473000C947400F3
:100010000C9475000C9476000C9477000C94780086
:100020000C9479000C947A000C947B000C947C0066
:100030000C947D000C947E000C947F000C94800046
:100040000C9481000C9482000C9483000C94840026
:100050000C94850004E00EBF0FE50DBF0FEF04BB4D
:10006000789400EE0ABF0AE005BF00E40BBF11E080
:100070000FEF02BB173021F009F4FACF1395FDCF33
:1000800011E0FBCF45E654EA5A95F1F74A95D9F7C6
:1000900041E04A95F1F700000000089538E01AC0E9
:1000A00032E218C03CE116C035E514C03DE512C08F
:1000B00037E710C03FE70EC0113081F3123081F3F3
:1000C000133081F3143081F3153081F3163081F34E
:1000D000173081F335BB0895D5DFD4DFEDDFD2DFF4
:1000E000D1DFD0DF189518951895189518951895A3
:1000F0001895189518951895189518951895189598
:0C010000189518951895189518951895E5
:00000001FF
