:020000020000FC
:100000000C942A000C943B010C943C010C943D018F
:100010000C943E010C943F010C9440010C9441015E
:100020000C9442010C9443010C9444010C9445013E
:100030000C9446010C9447010C9448010C9449011E
:100040000C944A010C944B010C944C010C944D01FE
:100050000C944E0104E00EBF0FE50DBF0FEF01BB86
:1000600007BB04BB00E002BB08BB05BB0EE00ABB3C
:100070000FEF0BBB4FD055D057D004D072BB88BB0D
:1000800065BBF9CF9530B9F00895312D03943A95B9
:100090003030E1F72BC0312D0A943A953030E1F73A
:1000A00027C01A0C3A953030E1F71BC00A0C3A957C
:1000B0003030E1F70EC03AE0A32E31E0232E0024C9
:1000C0001124362F32953F70030E362F3F7030309B
:1000D00069F7372F32953F70130E372F3F7030304E
:1000E00001F7312D303021F02F3F79F2203099F295
:1000F000302D11243A3020F013943A193A30E0F7B9
:100100001294303021F013943A953030E1F7129484
:10011000812DBACF6627772788279927332722276B
:100120000895C89BF7DF08950DEF0BBB000000009A
:10013000CC9B43D0CD9B48D0CE9B4DD0CF9B52D0B3
:100140000BEF0BBB00000000CC9B53D0CD9B58D0D5
:10015000CE9B5DD0CF9B62D007EF0BBB00000000B1
:10016000CC9B63D0CD9B68D0CE9B6DD0CF9B72D003
:100170000895939502C09530E1F70895732BFBDF46
:1001800011C07295732B7295F6DF0AC0632BF3DFF3
:100190000DC06295632B6295EEDF06C0943089F343
:1001A000933061F39130A9F3903081F30895232FB8
:1001B000E2DF02C09230D9F3089553D031E0EEDF90
:1001C000CC9BFECF4ED008954CD034E0E7DFCD9BE2
:1001D000FECF47D0089545D037E0E0DFCE9BFECF7D
:1001E00040D008953ED03FEFE5DFCF9BFECF39D022
:1001F000089537D032E0D2DFCC9BFECF32D00895C5
:1002000030D035E0CBDFCD9BFECF2BD0089529D069
:1002100038E0C4DFCE9BFECF24D0089522D030E05A
:10022000BDDFCF9BFECF1DD008951BD033E0B6DFDE
:10023000CC9BFECF16D0089514D036E0AFDFCD9B17
:10024000FECF0FD008950DD039E0A8DFCE9BFECFB2
:1002500008D0089506D030E0ADDFCF9BFECF01D0AF
:10026000089541EE5CEE5A95F1F74A95D9F748E0CA
:100270004A95F1F7089518951895189518951895B9
:100280001895189518951895189518951895189506
:0E0290001895189518951895189518951895A5
:00000001FF
