:020000020000FC
:100000000C942A000C94ED000C94EE000C94EF007C
:100010000C94F0000C94F1000C94F2000C94F3009A
:100020000C94F4000C94F5000C94F6000C94F7007A
:100030000C94F8000C94F9000C94FA000C94FB005A
:100040000C94FC000C94FD000C94FE000C94FF003A
:100050000C94000104E00EBF0FE50DBF0AE0A02ED6
:100060000FEF07BB00E008BB789400E002BF03E09D
:1000700008BF02E009BF0EEE0CBF0BE103BF2FEF7C
:1000800050D082D081D052D057D099D058D097D06C
:1000900059D095D051D093D04FD091D050D08FD04F
:1000A00051D08DD049D08BD04DD089D04ED087D073
:1000B0004FD085D084D083D045D081D046D07FD05A
:1000C00047D07DD07CD07BD02CD05ED02FD040D0FC
:1000D0006AD041D068D03CD066D037D064D032D01E
:1000E0006ED02AD06CD034D05ED035D05CD030D039
:1000F0005AD02BD058D026D062D01ED060D01FD07E
:100100005ED017D05CD018D05AD059D018D057D064
:1001100010D055D011D053D052D051D0B1CF2FEFF5
:10012000AFCF0BE003BF00E008BB08950BE103BFB6
:10013000089505E90CBF089500E70CBF089503E694
:100140000CBF089508E50CBF089503E50CBF0895A2
:100150000AE40CBF089502E40CBF08950BE30CBF42
:10016000089507E30CBF0895E7DFD8CFE8DFD6CFC7
:10017000E9DFD4CFEADFD2CFEBDFD0CFECDFCECFD9
:10018000EDDFCCCFEEDFCACF81E296EDBBEEBA95C4
:10019000F1F79A95D9F78A95C1F781E08A95F1F739
:1001A00000000000089582E19CEBA4ECAA95F1F711
:1001B0009A95D9F78A95C1F700000000089584E266
:1001C0009CEBA4ECAA95F1F79A95D9F78A95C1F71B
:1001D00081E08A95F1F70000089518951895189513
:1001E00018951895189518951895189518951895A7
:1001F0001895189518951895189518951895189597
:0202000018954F
:00000001FF
