:020000020000FC
:100000000C942A000C9493000C9494000C9495008A
:100010000C9496000C9497000C9498000C94990002
:100020000C949A000C949B000C949C000C949D00E2
:100030000C949E000C949F000C94A0000C94A100C2
:100040000C94A2000C94A3000C94A4000C94A500A2
:100050000C94A60004E00EBF0FE50DBF0FEF07BB29
:1000600000E008BB789400E002BF03E008BF00E0B6
:1000700009BF07E00CBF0CE603BF0FEF04BB01E0B4
:1000800005BB0FE001BB43D027D06EEF62BB000081
:1000900000000000849B0ED0859B15D0869B1CD051
:1000A0006DEF62BB000000000000849B1ED0859BAA
:1000B00025D0EBCF2CD001E00CBF01E005BB849B29
:1000C000FECF25D0089523D004E00CBF02E005BB8D
:1000D000859BFECF1CD008951AD008E00CBF03E02A
:1000E00005BB869BFECF13D0089511D00CE00CBF4A
:1000F00004E005BB849BFECF0AD0089508D00FE032
:100100000CBF05E005BB859BFECF01D0089545E6F9
:1001100054EA5A95F1F74A95D9F741E04A95F1F733
:1001200000000000089518951895189518951895D1
:100130001895189518951895189518951895189557
:0E0140001895189518951895189518951895F6
:00000001FF
