:020000020000FC
:100000000C942A000C9491000C9492000C94930090
:100010000C9494000C9495000C9496000C9497000A
:100020000C9498000C9499000C949A000C949B00EA
:100030000C949C000C949D000C949E000C949F00CA
:100040000C94A0000C94A1000C94A2000C94A300AA
:100050000C94A40004E00EBF0FE50DBF0FEF07BB2B
:1000600000E008BB789400E002BF03E008BF00E0B6
:1000700009BF0DE30CBF0BE603BF0FEF04BB01E0AC
:1000800005BB0FE001BB6EEF62BB0000000000008B
:10009000849B0ED0859B15D0869B1CD06DEF62BBD8
:1000A000000000000000849B1ED0859B25D0EBCF74
:1000B0002CD00DE30CBF01E005BB849BFECF25D007
:1000C000089523D00CE40CBF02E005BB859BFECF56
:1000D0001CD008951AD00CE50CBF03E005BB869B2D
:1000E000FECF13D0089511D00CE60CBF04E005BB81
:1000F000849BFECF0AD0089508D00CE70CBF05E022
:1001000005BB859BFECF01D0089545E654EA5A957C
:10011000F1F74A95D9F741E04A95F1F70000000060
:100120000895189518951895189518951895189577
:100130001895189518951895189518951895189557
:0A0140001895189518951895189554
:00000001FF
