:020000020000FC
:100000000C942A000C9435010C9436010C943701A1
:100010000C9438010C9439010C943A010C943B0176
:100020000C943C010C943D010C943E010C943F0156
:100030000C9440010C9441010C9442010C94430136
:100040000C9444010C9445010C9446010C94470116
:100050000C94480104E00EBF0FE50DBF0FE00ABB92
:100060000FEF0BBB0FEF01BB08EA02BB52D03AD037
:1000700002D092BBFCCF0EEF0BBB00000000CC9B6C
:10008000BAD0CD9B9CD0CE9B82D0CF9B68D00DEFB9
:100090000BBB00000000CC9B5AD0CD9B98D0CE9BD0
:1000A0007ED0CF9B64D00BEF0BBB00000000CC9B3D
:1000B000A9D0CD9B94D0CE9B7AD0CF9B60D007EFB8
:1000C0000BBB00000000CC9BBCD0CD9BB2D0CE9B24
:1000D000A8D0CF9B9ED0089525D006C02DD006C0B5
:1000E00018D006C03F3FC1F38430C1F38530C1F35F
:1000F000089590E808956F7062957295272F2F707C
:10010000622B707F089505D001D0089591E03FEFF4
:100110000895992722276627772788273327089568
:10012000F8DF03C088277332D9F30895EFDF09C0E1
:10013000E0DF09C0E8DF09C030E06531B9F77937A1
:10014000A9F73030A9F33F3FA9F392BB089581D0BE
:10015000D2DF70608395CC9BFECF7BD0089579D0A1
:10016000CADF71608395CF9BFECF73D0089571D0A5
:10017000C2DF72608395CF9BFECF6BD0089569D0AC
:10018000BADF73608395CF9BFECF63D0089561D0B3
:10019000B2DF74608395CE9BFECF5BD0089559D0BB
:1001A000AADF75608395CE9BFECF53D0089551D0C2
:1001B000A2DF76608395CE9BFECF4BD0089549D0C9
:1001C0009ADF77608395CD9BFECF43D0089541D0D1
:1001D00092DF78608395CD9BFECF3BD0089539D0D8
:1001E0000E947B0079608395CD9BFECF32D008952D
:1001F0000E94890008952DD03030D1F3CC9BFECFE2
:1002000028D0089526D0303099F3CC9BFECF21D052
:1002100008951FD070DF7A608395CF9BFECF19D0F1
:10022000089517D068DF7B608395CE9BFECF11D0F9
:1002300008950FD060DF7C608395CD9BFECF09D001
:10024000089507D058DF7D608395CC9BFECF01D009
:10025000089545E654EA5A95F1F74A95D9F741E0F1
:100260004A95F1F700000000089518951895189523
:100270001895189518951895189518951895189516
:100280001895189518951895189518951895189506
:020290001895BF
:00000001FF
